{
  "contractName": "carpool",
  "abi": [
    {
      "inputs": [
        {
          "internalType": "uint256",
          "name": "",
          "type": "uint256"
        }
      ],
      "name": "accept_ride_array",
      "outputs": [
        {
          "internalType": "string",
          "name": "from_address",
          "type": "string"
        },
        {
          "internalType": "string",
          "name": "to_address",
          "type": "string"
        },
        {
          "internalType": "string",
          "name": "name",
          "type": "string"
        },
        {
          "internalType": "string",
          "name": "time",
          "type": "string"
        },
        {
          "internalType": "string",
          "name": "driver_name",
          "type": "string"
        },
        {
          "internalType": "string",
          "name": "date",
          "type": "string"
        },
        {
          "internalType": "address",
          "name": "customer",
          "type": "address"
        },
        {
          "internalType": "address payable",
          "name": "driver",
          "type": "address"
        },
        {
          "internalType": "uint256",
          "name": "price",
          "type": "uint256"
        },
        {
          "internalType": "bool",
          "name": "isPayed",
          "type": "bool"
        }
      ],
      "stateMutability": "view",
      "type": "function",
      "constant": true
    },
    {
      "inputs": [
        {
          "internalType": "uint256",
          "name": "",
          "type": "uint256"
        }
      ],
      "name": "customer_array",
      "outputs": [
        {
          "internalType": "address",
          "name": "user",
          "type": "address"
        },
        {
          "internalType": "bool",
          "name": "isRegistered",
          "type": "bool"
        }
      ],
      "stateMutability": "view",
      "type": "function",
      "constant": true
    },
    {
      "inputs": [
        {
          "internalType": "uint256",
          "name": "",
          "type": "uint256"
        }
      ],
      "name": "driver_array",
      "outputs": [
        {
          "internalType": "address payable",
          "name": "user",
          "type": "address"
        },
        {
          "internalType": "bool",
          "name": "isRegistered",
          "type": "bool"
        }
      ],
      "stateMutability": "view",
      "type": "function",
      "constant": true
    },
    {
      "inputs": [
        {
          "internalType": "uint256",
          "name": "",
          "type": "uint256"
        }
      ],
      "name": "ride_array",
      "outputs": [
        {
          "internalType": "string",
          "name": "from_address",
          "type": "string"
        },
        {
          "internalType": "string",
          "name": "to_address",
          "type": "string"
        },
        {
          "internalType": "string",
          "name": "name",
          "type": "string"
        },
        {
          "internalType": "string",
          "name": "time",
          "type": "string"
        },
        {
          "internalType": "string",
          "name": "date",
          "type": "string"
        },
        {
          "internalType": "address",
          "name": "customer",
          "type": "address"
        }
      ],
      "stateMutability": "view",
      "type": "function",
      "constant": true
    },
    {
      "inputs": [],
      "name": "register_customer",
      "outputs": [],
      "stateMutability": "nonpayable",
      "type": "function"
    },
    {
      "inputs": [],
      "name": "register_driver",
      "outputs": [],
      "stateMutability": "nonpayable",
      "type": "function"
    },
    {
      "inputs": [
        {
          "internalType": "string",
          "name": "_from_address",
          "type": "string"
        },
        {
          "internalType": "string",
          "name": "_to_address",
          "type": "string"
        },
        {
          "internalType": "string",
          "name": "_name",
          "type": "string"
        },
        {
          "internalType": "string",
          "name": "_time",
          "type": "string"
        },
        {
          "internalType": "string",
          "name": "_date",
          "type": "string"
        }
      ],
      "name": "request_ride",
      "outputs": [],
      "stateMutability": "nonpayable",
      "type": "function"
    },
    {
      "inputs": [],
      "name": "get_ride_array",
      "outputs": [
        {
          "components": [
            {
              "internalType": "string",
              "name": "from_address",
              "type": "string"
            },
            {
              "internalType": "string",
              "name": "to_address",
              "type": "string"
            },
            {
              "internalType": "string",
              "name": "name",
              "type": "string"
            },
            {
              "internalType": "string",
              "name": "time",
              "type": "string"
            },
            {
              "internalType": "string",
              "name": "date",
              "type": "string"
            },
            {
              "internalType": "address",
              "name": "customer",
              "type": "address"
            }
          ],
          "internalType": "struct carpool.Ride[]",
          "name": "",
          "type": "tuple[]"
        }
      ],
      "stateMutability": "view",
      "type": "function",
      "constant": true
    },
    {
      "inputs": [],
      "name": "get_accept_ride_array",
      "outputs": [
        {
          "components": [
            {
              "internalType": "string",
              "name": "from_address",
              "type": "string"
            },
            {
              "internalType": "string",
              "name": "to_address",
              "type": "string"
            },
            {
              "internalType": "string",
              "name": "name",
              "type": "string"
            },
            {
              "internalType": "string",
              "name": "time",
              "type": "string"
            },
            {
              "internalType": "string",
              "name": "driver_name",
              "type": "string"
            },
            {
              "internalType": "string",
              "name": "date",
              "type": "string"
            },
            {
              "internalType": "address",
              "name": "customer",
              "type": "address"
            },
            {
              "internalType": "address payable",
              "name": "driver",
              "type": "address"
            },
            {
              "internalType": "uint256",
              "name": "price",
              "type": "uint256"
            },
            {
              "internalType": "bool",
              "name": "isPayed",
              "type": "bool"
            }
          ],
          "internalType": "struct carpool.Accept_Ride[]",
          "name": "",
          "type": "tuple[]"
        }
      ],
      "stateMutability": "view",
      "type": "function",
      "constant": true
    },
    {
      "inputs": [
        {
          "internalType": "uint256",
          "name": "ride_no",
          "type": "uint256"
        },
        {
          "internalType": "string",
          "name": "dri_name",
          "type": "string"
        },
        {
          "internalType": "uint256",
          "name": "_price",
          "type": "uint256"
        }
      ],
      "name": "accept_ride",
      "outputs": [],
      "stateMutability": "nonpayable",
      "type": "function"
    },
    {
      "inputs": [
        {
          "internalType": "uint256",
          "name": "ride_no",
          "type": "uint256"
        }
      ],
      "name": "pay_driver",
      "outputs": [],
      "stateMutability": "payable",
      "type": "function",
      "payable": true
    }
  ],
  "bytecode": "0x608060405234801561001057600080fd5b506131ec806100206000396000f3fe60806040526004361061009c5760003560e01c806329a822531161006457806329a82253146101a75780632ad8e7e2146101be5780634c3d89c9146101da57806398ed5ca4146102055780639e7cfa8914610243578063bf452c6e1461026c5761009c565b8063054b3c0d146100a157806306a95876146100e75780630e142bde1461012957806316212cde146101675780631ccfc22d1461017e575b600080fd5b3480156100ad57600080fd5b506100c860048036038101906100c391906122b5565b610297565b6040516100de9a999897969594939291906123fe565b60405180910390f35b3480156100f357600080fd5b5061010e600480360381019061010991906122b5565b610678565b604051610120969594939291906124c4565b60405180910390f35b34801561013557600080fd5b50610150600480360381019061014b91906122b5565b61098c565b60405161015e929190612548565b60405180910390f35b34801561017357600080fd5b5061017c6109e9565b005b34801561018a57600080fd5b506101a560048036038101906101a091906125d6565b610c28565b005b3480156101b357600080fd5b506101bc611287565b005b6101d860048036038101906101d391906122b5565b6114c6565b005b3480156101e657600080fd5b506101ef6116d9565b6040516101fc919061288f565b60405180910390f35b34801561021157600080fd5b5061022c600480360381019061022791906122b5565b611b76565b60405161023a9291906128b1565b60405180910390f35b34801561024f57600080fd5b5061026a600480360381019061026591906128da565b611bd3565b005b34801561027857600080fd5b50610281611ee6565b60405161028e9190612b5e565b60405180910390f35b600581815481106102a757600080fd5b90600052602060002090600a02016000915090508060000180546102ca90612baf565b80601f01602080910402602001604051908101604052809291908181526020018280546102f690612baf565b80156103435780601f1061031857610100808354040283529160200191610343565b820191906000526020600020905b81548152906001019060200180831161032657829003601f168201915b50505050509080600101805461035890612baf565b80601f016020809104026020016040519081016040528092919081815260200182805461038490612baf565b80156103d15780601f106103a6576101008083540402835291602001916103d1565b820191906000526020600020905b8154815290600101906020018083116103b457829003601f168201915b5050505050908060020180546103e690612baf565b80601f016020809104026020016040519081016040528092919081815260200182805461041290612baf565b801561045f5780601f106104345761010080835404028352916020019161045f565b820191906000526020600020905b81548152906001019060200180831161044257829003601f168201915b50505050509080600301805461047490612baf565b80601f01602080910402602001604051908101604052809291908181526020018280546104a090612baf565b80156104ed5780601f106104c2576101008083540402835291602001916104ed565b820191906000526020600020905b8154815290600101906020018083116104d057829003601f168201915b50505050509080600401805461050290612baf565b80601f016020809104026020016040519081016040528092919081815260200182805461052e90612baf565b801561057b5780601f106105505761010080835404028352916020019161057b565b820191906000526020600020905b81548152906001019060200180831161055e57829003601f168201915b50505050509080600501805461059090612baf565b80601f01602080910402602001604051908101604052809291908181526020018280546105bc90612baf565b80156106095780601f106105de57610100808354040283529160200191610609565b820191906000526020600020905b8154815290600101906020018083116105ec57829003601f168201915b5050505050908060060160009054906101000a900473ffffffffffffffffffffffffffffffffffffffff16908060070160009054906101000a900473ffffffffffffffffffffffffffffffffffffffff16908060080154908060090160009054906101000a900460ff1690508a565b6004818154811061068857600080fd5b90600052602060002090600602016000915090508060000180546106ab90612baf565b80601f01602080910402602001604051908101604052809291908181526020018280546106d790612baf565b80156107245780601f106106f957610100808354040283529160200191610724565b820191906000526020600020905b81548152906001019060200180831161070757829003601f168201915b50505050509080600101805461073990612baf565b80601f016020809104026020016040519081016040528092919081815260200182805461076590612baf565b80156107b25780601f10610787576101008083540402835291602001916107b2565b820191906000526020600020905b81548152906001019060200180831161079557829003601f168201915b5050505050908060020180546107c790612baf565b80601f01602080910402602001604051908101604052809291908181526020018280546107f390612baf565b80156108405780601f1061081557610100808354040283529160200191610840565b820191906000526020600020905b81548152906001019060200180831161082357829003601f168201915b50505050509080600301805461085590612baf565b80601f016020809104026020016040519081016040528092919081815260200182805461088190612baf565b80156108ce5780601f106108a3576101008083540402835291602001916108ce565b820191906000526020600020905b8154815290600101906020018083116108b157829003601f168201915b5050505050908060040180546108e390612baf565b80601f016020809104026020016040519081016040528092919081815260200182805461090f90612baf565b801561095c5780601f106109315761010080835404028352916020019161095c565b820191906000526020600020905b81548152906001019060200180831161093f57829003601f168201915b5050505050908060050160009054906101000a900473ffffffffffffffffffffffffffffffffffffffff16905086565b6002818154811061099c57600080fd5b906000526020600020016000915090508060000160009054906101000a900473ffffffffffffffffffffffffffffffffffffffff16908060000160149054906101000a900460ff16905082565b60003390506000803373ffffffffffffffffffffffffffffffffffffffff1673ffffffffffffffffffffffffffffffffffffffff16815260200190815260200160002060000160149054906101000a900460ff1615610a7d576040517f08c379a0000000000000000000000000000000000000000000000000000000008152600401610a7490612c52565b60405180910390fd5b600160003373ffffffffffffffffffffffffffffffffffffffff1673ffffffffffffffffffffffffffffffffffffffff16815260200190815260200160002060000160149054906101000a900460ff1615610b0d576040517f08c379a0000000000000000000000000000000000000000000000000000000008152600401610b0490612ce4565b60405180910390fd5b60016000803373ffffffffffffffffffffffffffffffffffffffff1673ffffffffffffffffffffffffffffffffffffffff16815260200190815260200160002060000160146101000a81548160ff021916908315150217905550600260405180604001604052808373ffffffffffffffffffffffffffffffffffffffff168152602001600115158152509080600181540180825580915050600190039060005260206000200160009091909190915060008201518160000160006101000a81548173ffffffffffffffffffffffffffffffffffffffff021916908373ffffffffffffffffffffffffffffffffffffffff16021790555060208201518160000160146101000a81548160ff021916908315150217905550505050565b600160003373ffffffffffffffffffffffffffffffffffffffff1673ffffffffffffffffffffffffffffffffffffffff16815260200190815260200160002060000160149054906101000a900460ff16610cb7576040517f08c379a0000000000000000000000000000000000000000000000000000000008152600401610cae90612d76565b60405180910390fd5b600560405180610140016040528060048781548110610cd957610cd8612d96565b5b90600052602060002090600602016000018054610cf590612baf565b80601f0160208091040260200160405190810160405280929190818152602001828054610d2190612baf565b8015610d6e5780601f10610d4357610100808354040283529160200191610d6e565b820191906000526020600020905b815481529060010190602001808311610d5157829003601f168201915b5050505050815260200160048781548110610d8c57610d8b612d96565b5b90600052602060002090600602016001018054610da890612baf565b80601f0160208091040260200160405190810160405280929190818152602001828054610dd490612baf565b8015610e215780601f10610df657610100808354040283529160200191610e21565b820191906000526020600020905b815481529060010190602001808311610e0457829003601f168201915b5050505050815260200160048781548110610e3f57610e3e612d96565b5b90600052602060002090600602016002018054610e5b90612baf565b80601f0160208091040260200160405190810160405280929190818152602001828054610e8790612baf565b8015610ed45780601f10610ea957610100808354040283529160200191610ed4565b820191906000526020600020905b815481529060010190602001808311610eb757829003601f168201915b5050505050815260200160048781548110610ef257610ef1612d96565b5b90600052602060002090600602016003018054610f0e90612baf565b80601f0160208091040260200160405190810160405280929190818152602001828054610f3a90612baf565b8015610f875780601f10610f5c57610100808354040283529160200191610f87565b820191906000526020600020905b815481529060010190602001808311610f6a57829003601f168201915b5050505050815260200185858080601f016020809104026020016040519081016040528093929190818152602001838380828437600081840152601f19601f82011690508083019250505050505050815260200160048781548110610fef57610fee612d96565b5b9060005260206000209060060201600401805461100b90612baf565b80601f016020809104026020016040519081016040528092919081815260200182805461103790612baf565b80156110845780601f1061105957610100808354040283529160200191611084565b820191906000526020600020905b81548152906001019060200180831161106757829003601f168201915b50505050508152602001600487815481106110a2576110a1612d96565b5b906000526020600020906006020160050160009054906101000a900473ffffffffffffffffffffffffffffffffffffffff1673ffffffffffffffffffffffffffffffffffffffff1681526020013373ffffffffffffffffffffffffffffffffffffffff1681526020018381526020016000151581525090806001815401808255809150506001900390600052602060002090600a020160009091909190915060008201518160000190816111569190612fa0565b50602082015181600101908161116c9190612fa0565b5060408201518160020190816111829190612fa0565b5060608201518160030190816111989190612fa0565b5060808201518160040190816111ae9190612fa0565b5060a08201518160050190816111c49190612fa0565b5060c08201518160060160006101000a81548173ffffffffffffffffffffffffffffffffffffffff021916908373ffffffffffffffffffffffffffffffffffffffff16021790555060e08201518160070160006101000a81548173ffffffffffffffffffffffffffffffffffffffff021916908373ffffffffffffffffffffffffffffffffffffffff16021790555061010082015181600801556101208201518160090160006101000a81548160ff021916908315150217905550505050505050565b6000339050600160003373ffffffffffffffffffffffffffffffffffffffff1673ffffffffffffffffffffffffffffffffffffffff16815260200190815260200160002060000160149054906101000a900460ff161561131c576040517f08c379a000000000000000000000000000000000000000000000000000000000815260040161131390612ce4565b60405180910390fd5b6000803373ffffffffffffffffffffffffffffffffffffffff1673ffffffffffffffffffffffffffffffffffffffff16815260200190815260200160002060000160149054906101000a900460ff16156113ab576040517f08c379a00000000000000000000000000000000000000000000000000000000081526004016113a290612c52565b60405180910390fd5b60018060003373ffffffffffffffffffffffffffffffffffffffff1673ffffffffffffffffffffffffffffffffffffffff16815260200190815260200160002060000160146101000a81548160ff021916908315150217905550600360405180604001604052808373ffffffffffffffffffffffffffffffffffffffff168152602001600115158152509080600181540180825580915050600190039060005260206000200160009091909190915060008201518160000160006101000a81548173ffffffffffffffffffffffffffffffffffffffff021916908373ffffffffffffffffffffffffffffffffffffffff16021790555060208201518160000160146101000a81548160ff021916908315150217905550505050565b6000803373ffffffffffffffffffffffffffffffffffffffff1673ffffffffffffffffffffffffffffffffffffffff16815260200190815260200160002060000160149054906101000a900460ff16611554576040517f08c379a000000000000000000000000000000000000000000000000000000000815260040161154b906130e4565b60405180910390fd5b60006005828154811061156a57611569612d96565b5b90600052602060002090600a0201905060008160070160009054906101000a900473ffffffffffffffffffffffffffffffffffffffff16905060001515600584815481106115bb576115ba612d96565b5b90600052602060002090600a020160090160009054906101000a900460ff161515146115e657600080fd5b6000808273ffffffffffffffffffffffffffffffffffffffff163460405161160d90613135565b60006040518083038185875af1925050503d806000811461164a576040519150601f19603f3d011682016040523d82523d6000602084013e61164f565b606091505b509150915081611694576040517f08c379a000000000000000000000000000000000000000000000000000000000815260040161168b90613196565b60405180910390fd5b6001600586815481106116aa576116a9612d96565b5b90600052602060002090600a020160090160006101000a81548160ff0219169083151502179055505050505050565b60606005805480602002602001604051908101604052809291908181526020016000905b82821015611b6d57838290600052602060002090600a02016040518061014001604052908160008201805461173190612baf565b80601f016020809104026020016040519081016040528092919081815260200182805461175d90612baf565b80156117aa5780601f1061177f576101008083540402835291602001916117aa565b820191906000526020600020905b81548152906001019060200180831161178d57829003601f168201915b505050505081526020016001820180546117c390612baf565b80601f01602080910402602001604051908101604052809291908181526020018280546117ef90612baf565b801561183c5780601f106118115761010080835404028352916020019161183c565b820191906000526020600020905b81548152906001019060200180831161181f57829003601f168201915b5050505050815260200160028201805461185590612baf565b80601f016020809104026020016040519081016040528092919081815260200182805461188190612baf565b80156118ce5780601f106118a3576101008083540402835291602001916118ce565b820191906000526020600020905b8154815290600101906020018083116118b157829003601f168201915b505050505081526020016003820180546118e790612baf565b80601f016020809104026020016040519081016040528092919081815260200182805461191390612baf565b80156119605780601f1061193557610100808354040283529160200191611960565b820191906000526020600020905b81548152906001019060200180831161194357829003601f168201915b5050505050815260200160048201805461197990612baf565b80601f01602080910402602001604051908101604052809291908181526020018280546119a590612baf565b80156119f25780601f106119c7576101008083540402835291602001916119f2565b820191906000526020600020905b8154815290600101906020018083116119d557829003601f168201915b50505050508152602001600582018054611a0b90612baf565b80601f0160208091040260200160405190810160405280929190818152602001828054611a3790612baf565b8015611a845780601f10611a5957610100808354040283529160200191611a84565b820191906000526020600020905b815481529060010190602001808311611a6757829003601f168201915b505050505081526020016006820160009054906101000a900473ffffffffffffffffffffffffffffffffffffffff1673ffffffffffffffffffffffffffffffffffffffff1673ffffffffffffffffffffffffffffffffffffffff1681526020016007820160009054906101000a900473ffffffffffffffffffffffffffffffffffffffff1673ffffffffffffffffffffffffffffffffffffffff1673ffffffffffffffffffffffffffffffffffffffff168152602001600882015481526020016009820160009054906101000a900460ff161515151581525050815260200190600101906116fd565b50505050905090565b60038181548110611b8657600080fd5b906000526020600020016000915090508060000160009054906101000a900473ffffffffffffffffffffffffffffffffffffffff16908060000160149054906101000a900460ff16905082565b6000803373ffffffffffffffffffffffffffffffffffffffff1673ffffffffffffffffffffffffffffffffffffffff16815260200190815260200160002060000160149054906101000a900460ff16611c61576040517f08c379a0000000000000000000000000000000000000000000000000000000008152600401611c58906130e4565b60405180910390fd5b60046040518060c001604052808c8c8080601f016020809104026020016040519081016040528093929190818152602001838380828437600081840152601f19601f8201169050808301925050505050505081526020018a8a8080601f016020809104026020016040519081016040528093929190818152602001838380828437600081840152601f19601f82011690508083019250505050505050815260200188888080601f016020809104026020016040519081016040528093929190818152602001838380828437600081840152601f19601f82011690508083019250505050505050815260200186868080601f016020809104026020016040519081016040528093929190818152602001838380828437600081840152601f19601f82011690508083019250505050505050815260200184848080601f016020809104026020016040519081016040528093929190818152602001838380828437600081840152601f19601f8201169050808301925050505050505081526020013373ffffffffffffffffffffffffffffffffffffffff1681525090806001815401808255809150506001900390600052602060002090600602016000909190919091506000820151816000019081611e389190612fa0565b506020820151816001019081611e4e9190612fa0565b506040820151816002019081611e649190612fa0565b506060820151816003019081611e7a9190612fa0565b506080820151816004019081611e909190612fa0565b5060a08201518160050160006101000a81548173ffffffffffffffffffffffffffffffffffffffff021916908373ffffffffffffffffffffffffffffffffffffffff160217905550505050505050505050505050565b60606004805480602002602001604051908101604052809291908181526020016000905b8282101561226c57838290600052602060002090600602016040518060c0016040529081600082018054611f3d90612baf565b80601f0160208091040260200160405190810160405280929190818152602001828054611f6990612baf565b8015611fb65780601f10611f8b57610100808354040283529160200191611fb6565b820191906000526020600020905b815481529060010190602001808311611f9957829003601f168201915b50505050508152602001600182018054611fcf90612baf565b80601f0160208091040260200160405190810160405280929190818152602001828054611ffb90612baf565b80156120485780601f1061201d57610100808354040283529160200191612048565b820191906000526020600020905b81548152906001019060200180831161202b57829003601f168201915b5050505050815260200160028201805461206190612baf565b80601f016020809104026020016040519081016040528092919081815260200182805461208d90612baf565b80156120da5780601f106120af576101008083540402835291602001916120da565b820191906000526020600020905b8154815290600101906020018083116120bd57829003601f168201915b505050505081526020016003820180546120f390612baf565b80601f016020809104026020016040519081016040528092919081815260200182805461211f90612baf565b801561216c5780601f106121415761010080835404028352916020019161216c565b820191906000526020600020905b81548152906001019060200180831161214f57829003601f168201915b5050505050815260200160048201805461218590612baf565b80601f01602080910402602001604051908101604052809291908181526020018280546121b190612baf565b80156121fe5780601f106121d3576101008083540402835291602001916121fe565b820191906000526020600020905b8154815290600101906020018083116121e157829003601f168201915b505050505081526020016005820160009054906101000a900473ffffffffffffffffffffffffffffffffffffffff1673ffffffffffffffffffffffffffffffffffffffff1673ffffffffffffffffffffffffffffffffffffffff168152505081526020019060010190611f0a565b50505050905090565b600080fd5b600080fd5b6000819050919050565b6122928161227f565b811461229d57600080fd5b50565b6000813590506122af81612289565b92915050565b6000602082840312156122cb576122ca612275565b5b60006122d9848285016122a0565b91505092915050565b600081519050919050565b600082825260208201905092915050565b60005b8381101561231c578082015181840152602081019050612301565b60008484015250505050565b6000601f19601f8301169050919050565b6000612344826122e2565b61234e81856122ed565b935061235e8185602086016122fe565b61236781612328565b840191505092915050565b600073ffffffffffffffffffffffffffffffffffffffff82169050919050565b600061239d82612372565b9050919050565b6123ad81612392565b82525050565b60006123be82612372565b9050919050565b6123ce816123b3565b82525050565b6123dd8161227f565b82525050565b60008115159050919050565b6123f8816123e3565b82525050565b6000610140820190508181036000830152612419818d612339565b9050818103602083015261242d818c612339565b90508181036040830152612441818b612339565b90508181036060830152612455818a612339565b905081810360808301526124698189612339565b905081810360a083015261247d8188612339565b905061248c60c08301876123a4565b61249960e08301866123c5565b6124a76101008301856123d4565b6124b56101208301846123ef565b9b9a5050505050505050505050565b600060c08201905081810360008301526124de8189612339565b905081810360208301526124f28188612339565b905081810360408301526125068187612339565b9050818103606083015261251a8186612339565b9050818103608083015261252e8185612339565b905061253d60a08301846123a4565b979650505050505050565b600060408201905061255d60008301856123a4565b61256a60208301846123ef565b9392505050565b600080fd5b600080fd5b600080fd5b60008083601f84011261259657612595612571565b5b8235905067ffffffffffffffff8111156125b3576125b2612576565b5b6020830191508360018202830111156125cf576125ce61257b565b5b9250929050565b600080600080606085870312156125f0576125ef612275565b5b60006125fe878288016122a0565b945050602085013567ffffffffffffffff81111561261f5761261e61227a565b5b61262b87828801612580565b9350935050604061263e878288016122a0565b91505092959194509250565b600081519050919050565b600082825260208201905092915050565b6000819050602082019050919050565b600082825260208201905092915050565b6000612692826122e2565b61269c8185612676565b93506126ac8185602086016122fe565b6126b581612328565b840191505092915050565b6126c981612392565b82525050565b6126d8816123b3565b82525050565b6126e78161227f565b82525050565b6126f6816123e3565b82525050565b600061014083016000830151848203600086015261271a8282612687565b915050602083015184820360208601526127348282612687565b9150506040830151848203604086015261274e8282612687565b915050606083015184820360608601526127688282612687565b915050608083015184820360808601526127828282612687565b91505060a083015184820360a086015261279c8282612687565b91505060c08301516127b160c08601826126c0565b5060e08301516127c460e08601826126cf565b506101008301516127d96101008601826126de565b506101208301516127ee6101208601826126ed565b508091505092915050565b600061280583836126fc565b905092915050565b6000602082019050919050565b60006128258261264a565b61282f8185612655565b93508360208202850161284185612666565b8060005b8581101561287d578484038952815161285e85826127f9565b94506128698361280d565b925060208a01995050600181019050612845565b50829750879550505050505092915050565b600060208201905081810360008301526128a9818461281a565b905092915050565b60006040820190506128c660008301856123c5565b6128d360208301846123ef565b9392505050565b60008060008060008060008060008060a08b8d0312156128fd576128fc612275565b5b60008b013567ffffffffffffffff81111561291b5761291a61227a565b5b6129278d828e01612580565b9a509a505060208b013567ffffffffffffffff81111561294a5761294961227a565b5b6129568d828e01612580565b985098505060408b013567ffffffffffffffff8111156129795761297861227a565b5b6129858d828e01612580565b965096505060608b013567ffffffffffffffff8111156129a8576129a761227a565b5b6129b48d828e01612580565b945094505060808b013567ffffffffffffffff8111156129d7576129d661227a565b5b6129e38d828e01612580565b92509250509295989b9194979a5092959850565b600081519050919050565b600082825260208201905092915050565b6000819050602082019050919050565b600060c0830160008301518482036000860152612a408282612687565b91505060208301518482036020860152612a5a8282612687565b91505060408301518482036040860152612a748282612687565b91505060608301518482036060860152612a8e8282612687565b91505060808301518482036080860152612aa88282612687565b91505060a0830151612abd60a08601826126c0565b508091505092915050565b6000612ad48383612a23565b905092915050565b6000602082019050919050565b6000612af4826129f7565b612afe8185612a02565b935083602082028501612b1085612a13565b8060005b85811015612b4c5784840389528151612b2d8582612ac8565b9450612b3883612adc565b925060208a01995050600181019050612b14565b50829750879550505050505092915050565b60006020820190508181036000830152612b788184612ae9565b905092915050565b7f4e487b7100000000000000000000000000000000000000000000000000000000600052602260045260246000fd5b60006002820490506001821680612bc757607f821691505b602082108103612bda57612bd9612b80565b5b50919050565b7f5573657220697320616c7265616479207265676973746572656420617320612060008201527f637573746f6d6572000000000000000000000000000000000000000000000000602082015250565b6000612c3c6028836122ed565b9150612c4782612be0565b604082019050919050565b60006020820190508181036000830152612c6b81612c2f565b9050919050565b7f5573657220697320616c7265616479207265676973746572656420617320612060008201527f6472697665720000000000000000000000000000000000000000000000000000602082015250565b6000612cce6026836122ed565b9150612cd982612c72565b604082019050919050565b60006020820190508181036000830152612cfd81612cc1565b9050919050565b7f55736572206973206e6f7420726567697374657265642061732061206472697660008201527f6572000000000000000000000000000000000000000000000000000000000000602082015250565b6000612d606022836122ed565b9150612d6b82612d04565b604082019050919050565b60006020820190508181036000830152612d8f81612d53565b9050919050565b7f4e487b7100000000000000000000000000000000000000000000000000000000600052603260045260246000fd5b7f4e487b7100000000000000000000000000000000000000000000000000000000600052604160045260246000fd5b60008190508160005260206000209050919050565b60006020601f8301049050919050565b600082821b905092915050565b600060088302612e567fffffffffffffffffffffffffffffffffffffffffffffffffffffffffffffffff82612e19565b612e608683612e19565b95508019841693508086168417925050509392505050565b6000819050919050565b6000612e9d612e98612e938461227f565b612e78565b61227f565b9050919050565b6000819050919050565b612eb783612e82565b612ecb612ec382612ea4565b848454612e26565b825550505050565b600090565b612ee0612ed3565b612eeb818484612eae565b505050565b5b81811015612f0f57612f04600082612ed8565b600181019050612ef1565b5050565b601f821115612f5457612f2581612df4565b612f2e84612e09565b81016020851015612f3d578190505b612f51612f4985612e09565b830182612ef0565b50505b505050565b600082821c905092915050565b6000612f7760001984600802612f59565b1980831691505092915050565b6000612f908383612f66565b9150826002028217905092915050565b612fa9826122e2565b67ffffffffffffffff811115612fc257612fc1612dc5565b5b612fcc8254612baf565b612fd7828285612f13565b600060209050601f83116001811461300a5760008415612ff8578287015190505b6130028582612f84565b86555061306a565b601f19841661301886612df4565b60005b828110156130405784890151825560018201915060208501945060208101905061301b565b8683101561305d5784890151613059601f891682612f66565b8355505b6001600288020188555050505b505050505050565b7f55736572206973206e6f7420207265676973746572656420617320612063757360008201527f746f6d6572000000000000000000000000000000000000000000000000000000602082015250565b60006130ce6025836122ed565b91506130d982613072565b604082019050919050565b600060208201905081810360008301526130fd816130c1565b9050919050565b600081905092915050565b50565b600061311f600083613104565b915061312a8261310f565b600082019050919050565b600061314082613112565b9150819050919050565b7f4661696c656420746f2073656e64204574686572000000000000000000000000600082015250565b60006131806014836122ed565b915061318b8261314a565b602082019050919050565b600060208201905081810360008301526131af81613173565b905091905056fea26469706673582212200449835bc54a679b1e0686e7d2d4f2a4486891f3a03644015b8f602b7bd81d6c64736f6c63430008110033",
  "immutableReferences": {},
  "source": "// SPDX-License-Identifier: GPL-3.0\r\npragma solidity >=0.7.0 <0.9.0;\r\n\r\ncontract carpool{\r\n\r\n   \r\n    struct Customer{\r\n        address user;\r\n        bool  isRegistered;\r\n    }\r\n    struct Driver{\r\n        address payable user;\r\n        bool isRegistered;\r\n    }\r\n    // struct for request ride\r\n    struct Ride{\r\n        string from_address;\r\n        string to_address;\r\n         string name;\r\n         string time;\r\n         \r\n         string date;\r\n         address customer;\r\n        \r\n    }\r\n    struct Accept_Ride{\r\n        string from_address;\r\n        string to_address;\r\n         string name;\r\n         string time;\r\n         string driver_name;\r\n         string date;\r\n         address customer;\r\n         address payable driver;\r\n         uint price; \r\n         bool isPayed; \r\n    }\r\n    mapping(address=>Customer) customers;\r\n    mapping(address =>Driver) drivers;\r\n    Customer[] public customer_array;\r\n    Driver[] public  driver_array;\r\n    Ride[] public ride_array;\r\n    Accept_Ride[] public accept_ride_array;\r\n    function register_customer() public {\r\n       //bool not_registered = true;\r\n        address current_user = msg.sender;\r\n        require(!customers[msg.sender].isRegistered, \"User is already registered as a customer\");\r\n        require(!drivers[msg.sender].isRegistered, \"User is already registered as a driver\");\r\n        customers[msg.sender].isRegistered = true;\r\n      //  require(not_registered==true);\r\n        customer_array.push(Customer({\r\n            user:current_user,\r\n            isRegistered: true\r\n        }));\r\n        \r\n    }\r\n    function register_driver() public {\r\n       // bool not_registered = true;\r\n        address payable current_user = payable(msg.sender);\r\n       \r\n    \r\n        require(!drivers[msg.sender].isRegistered, \"User is already registered as a driver\");\r\n         require(!customers[msg.sender].isRegistered, \"User is already registered as a customer\");\r\n        drivers[msg.sender].isRegistered = true; \r\n        driver_array.push(Driver({\r\n            user:current_user,\r\n            isRegistered: true\r\n        }));\r\n       \r\n    }\r\n    function request_ride(string calldata _from_address,string calldata _to_address,string calldata _name,string calldata _time,string calldata _date) public{\r\n        /*bool existing_customer = false;\r\n        for(uint i=0;i<customer_array.length;i++)\r\n        {\r\n            if(customer_array[i].user==msg.sender)\r\n                existing_customer = true;\r\n        }\r\n        require(existing_customer==true);*/\r\n       require(customers[msg.sender].isRegistered, \"User is not  registered as a customer\");\r\n        ride_array.push(Ride({\r\n            from_address:_from_address,\r\n            to_address: _to_address,\r\n            name: _name,\r\n            time:_time,\r\n            customer: msg.sender,\r\n            date: _date\r\n        }));\r\n    }\r\n    function get_ride_array() public view returns (Ride[] memory){\r\n        return ride_array;\r\n    }\r\n    function get_accept_ride_array() public view returns (Accept_Ride[] memory){\r\n        return accept_ride_array;\r\n    }\r\n    function accept_ride(uint  ride_no,string calldata dri_name,uint _price) public  {\r\n        /* bool existing_driver = false;\r\n        for(uint i=0;i<driver_array.length;i++)\r\n        {\r\n            if(driver_array[i].user==msg.sender)\r\n                existing_driver = true;\r\n        }*/\r\n         require(drivers[msg.sender].isRegistered, \"User is not registered as a driver\");\r\n        //require(existing_driver==true);\r\n        accept_ride_array.push(Accept_Ride({\r\n            from_address:ride_array[ride_no].from_address,\r\n            to_address: ride_array[ride_no].to_address,\r\n            name: ride_array[ride_no].name,\r\n            time:ride_array[ride_no].time,\r\n            driver_name: dri_name,\r\n            customer: ride_array[ride_no].customer,\r\n            driver: payable(msg.sender),\r\n            price:_price,\r\n            date: ride_array[ride_no].date,\r\n            isPayed: false\r\n        }));\r\n\r\n    }\r\n     // Function to receive Ether. msg.data must be empty\r\n    /*receive() external payable {}\r\n    // Fallback function is called when msg.data is not empty\r\n    fallback() external payable {}*/\r\n    function pay_driver(uint ride_no) public payable{\r\n         require(customers[msg.sender].isRegistered, \"User is not  registered as a customer\");\r\n\r\n        Accept_Ride storage ride = accept_ride_array[ride_no];\r\n    address payable driver = ride.driver;\r\n    require(accept_ride_array[ride_no].isPayed==false);\r\n    //uint price = ride.price;\r\n    //driver.transfer(price);\r\n     (bool sent, bytes memory data) = driver.call{value: msg.value}(\"\");\r\n        require(sent, \"Failed to send Ether\");\r\n        accept_ride_array[ride_no].isPayed=true;\r\n    }\r\n}",
  "sourcePath": "C:\\Users\\lakka\\OneDrive - Manipal Academy of Higher Education\\programming learning\\Dapps\\UBER-CLONE\\contracts\\carpool.sol",
  "compiler": {
    "name": "solc",
    "version": "0.8.17+commit.8df45f5f.Emscripten.clang"
  },
  "schemaVersion": "3.4.11",
  "updatedAt": "2023-04-29T15:38:00.973Z",
  "networkType": "ethereum",
  "devdoc": {
    "kind": "dev",
    "methods": {},
    "version": 1
  },
  "userdoc": {
    "kind": "user",
    "methods": {},
    "version": 1
  }
}