{
  "contractName": "carpool",
  "abi": [
    {
      "inputs": [
        {
          "internalType": "uint256",
          "name": "",
          "type": "uint256"
        }
      ],
      "name": "accept_ride_array",
      "outputs": [
        {
          "internalType": "string",
          "name": "from_address",
          "type": "string"
        },
        {
          "internalType": "string",
          "name": "to_address",
          "type": "string"
        },
        {
          "internalType": "string",
          "name": "name",
          "type": "string"
        },
        {
          "internalType": "string",
          "name": "time",
          "type": "string"
        },
        {
          "internalType": "string",
          "name": "driver_name",
          "type": "string"
        },
        {
          "internalType": "string",
          "name": "date",
          "type": "string"
        },
        {
          "internalType": "address",
          "name": "customer",
          "type": "address"
        },
        {
          "internalType": "address payable",
          "name": "driver",
          "type": "address"
        },
        {
          "internalType": "uint256",
          "name": "price",
          "type": "uint256"
        },
        {
          "internalType": "bool",
          "name": "isPayed",
          "type": "bool"
        }
      ],
      "stateMutability": "view",
      "type": "function",
      "constant": true
    },
    {
      "inputs": [
        {
          "internalType": "uint256",
          "name": "",
          "type": "uint256"
        }
      ],
      "name": "customer_array",
      "outputs": [
        {
          "internalType": "address",
          "name": "user",
          "type": "address"
        },
        {
          "internalType": "bool",
          "name": "isRegistered",
          "type": "bool"
        }
      ],
      "stateMutability": "view",
      "type": "function",
      "constant": true
    },
    {
      "inputs": [
        {
          "internalType": "uint256",
          "name": "",
          "type": "uint256"
        }
      ],
      "name": "driver_array",
      "outputs": [
        {
          "internalType": "address payable",
          "name": "user",
          "type": "address"
        },
        {
          "internalType": "bool",
          "name": "isRegistered",
          "type": "bool"
        }
      ],
      "stateMutability": "view",
      "type": "function",
      "constant": true
    },
    {
      "inputs": [
        {
          "internalType": "uint256",
          "name": "",
          "type": "uint256"
        }
      ],
      "name": "ride_array",
      "outputs": [
        {
          "internalType": "string",
          "name": "from_address",
          "type": "string"
        },
        {
          "internalType": "string",
          "name": "to_address",
          "type": "string"
        },
        {
          "internalType": "string",
          "name": "name",
          "type": "string"
        },
        {
          "internalType": "string",
          "name": "time",
          "type": "string"
        },
        {
          "internalType": "string",
          "name": "date",
          "type": "string"
        },
        {
          "internalType": "address",
          "name": "customer",
          "type": "address"
        }
      ],
      "stateMutability": "view",
      "type": "function",
      "constant": true
    },
    {
      "inputs": [],
      "name": "register_customer",
      "outputs": [],
      "stateMutability": "nonpayable",
      "type": "function"
    },
    {
      "inputs": [],
      "name": "register_driver",
      "outputs": [],
      "stateMutability": "nonpayable",
      "type": "function"
    },
    {
      "inputs": [
        {
          "internalType": "string",
          "name": "_from_address",
          "type": "string"
        },
        {
          "internalType": "string",
          "name": "_to_address",
          "type": "string"
        },
        {
          "internalType": "string",
          "name": "_name",
          "type": "string"
        },
        {
          "internalType": "string",
          "name": "_time",
          "type": "string"
        },
        {
          "internalType": "string",
          "name": "_date",
          "type": "string"
        }
      ],
      "name": "request_ride",
      "outputs": [],
      "stateMutability": "nonpayable",
      "type": "function"
    },
    {
      "inputs": [
        {
          "internalType": "uint256",
          "name": "ride_no",
          "type": "uint256"
        },
        {
          "internalType": "string",
          "name": "dri_name",
          "type": "string"
        },
        {
          "internalType": "uint256",
          "name": "_price",
          "type": "uint256"
        }
      ],
      "name": "accept_ride",
      "outputs": [],
      "stateMutability": "nonpayable",
      "type": "function"
    },
    {
      "inputs": [
        {
          "internalType": "uint256",
          "name": "ride_no",
          "type": "uint256"
        }
      ],
      "name": "pay_driver",
      "outputs": [],
      "stateMutability": "payable",
      "type": "function",
      "payable": true
    }
  ],
  "bytecode": "0x608060405234801561001057600080fd5b50612564806100206000396000f3fe6080604052600436106100865760003560e01c80631ccfc22d116100595780631ccfc22d1461016857806329a82253146101915780632ad8e7e2146101a857806398ed5ca4146101c45780639e7cfa891461020257610086565b8063054b3c0d1461008b57806306a95876146100d15780630e142bde1461011357806316212cde14610151575b600080fd5b34801561009757600080fd5b506100b260048036038101906100ad9190611a1d565b61022b565b6040516100c89a99989796959493929190611b66565b60405180910390f35b3480156100dd57600080fd5b506100f860048036038101906100f39190611a1d565b61060c565b60405161010a96959493929190611c2c565b60405180910390f35b34801561011f57600080fd5b5061013a60048036038101906101359190611a1d565b610920565b604051610148929190611cb0565b60405180910390f35b34801561015d57600080fd5b5061016661097d565b005b34801561017457600080fd5b5061018f600480360381019061018a9190611d3e565b610bbc565b005b34801561019d57600080fd5b506101a661121b565b005b6101c260048036038101906101bd9190611a1d565b61145a565b005b3480156101d057600080fd5b506101eb60048036038101906101e69190611a1d565b61166d565b6040516101f9929190611db2565b60405180910390f35b34801561020e57600080fd5b5061022960048036038101906102249190611ddb565b6116ca565b005b6005818154811061023b57600080fd5b90600052602060002090600a020160009150905080600001805461025e90611f27565b80601f016020809104026020016040519081016040528092919081815260200182805461028a90611f27565b80156102d75780601f106102ac576101008083540402835291602001916102d7565b820191906000526020600020905b8154815290600101906020018083116102ba57829003601f168201915b5050505050908060010180546102ec90611f27565b80601f016020809104026020016040519081016040528092919081815260200182805461031890611f27565b80156103655780601f1061033a57610100808354040283529160200191610365565b820191906000526020600020905b81548152906001019060200180831161034857829003601f168201915b50505050509080600201805461037a90611f27565b80601f01602080910402602001604051908101604052809291908181526020018280546103a690611f27565b80156103f35780601f106103c8576101008083540402835291602001916103f3565b820191906000526020600020905b8154815290600101906020018083116103d657829003601f168201915b50505050509080600301805461040890611f27565b80601f016020809104026020016040519081016040528092919081815260200182805461043490611f27565b80156104815780601f1061045657610100808354040283529160200191610481565b820191906000526020600020905b81548152906001019060200180831161046457829003601f168201915b50505050509080600401805461049690611f27565b80601f01602080910402602001604051908101604052809291908181526020018280546104c290611f27565b801561050f5780601f106104e45761010080835404028352916020019161050f565b820191906000526020600020905b8154815290600101906020018083116104f257829003601f168201915b50505050509080600501805461052490611f27565b80601f016020809104026020016040519081016040528092919081815260200182805461055090611f27565b801561059d5780601f106105725761010080835404028352916020019161059d565b820191906000526020600020905b81548152906001019060200180831161058057829003601f168201915b5050505050908060060160009054906101000a900473ffffffffffffffffffffffffffffffffffffffff16908060070160009054906101000a900473ffffffffffffffffffffffffffffffffffffffff16908060080154908060090160009054906101000a900460ff1690508a565b6004818154811061061c57600080fd5b906000526020600020906006020160009150905080600001805461063f90611f27565b80601f016020809104026020016040519081016040528092919081815260200182805461066b90611f27565b80156106b85780601f1061068d576101008083540402835291602001916106b8565b820191906000526020600020905b81548152906001019060200180831161069b57829003601f168201915b5050505050908060010180546106cd90611f27565b80601f01602080910402602001604051908101604052809291908181526020018280546106f990611f27565b80156107465780601f1061071b57610100808354040283529160200191610746565b820191906000526020600020905b81548152906001019060200180831161072957829003601f168201915b50505050509080600201805461075b90611f27565b80601f016020809104026020016040519081016040528092919081815260200182805461078790611f27565b80156107d45780601f106107a9576101008083540402835291602001916107d4565b820191906000526020600020905b8154815290600101906020018083116107b757829003601f168201915b5050505050908060030180546107e990611f27565b80601f016020809104026020016040519081016040528092919081815260200182805461081590611f27565b80156108625780601f1061083757610100808354040283529160200191610862565b820191906000526020600020905b81548152906001019060200180831161084557829003601f168201915b50505050509080600401805461087790611f27565b80601f01602080910402602001604051908101604052809291908181526020018280546108a390611f27565b80156108f05780601f106108c5576101008083540402835291602001916108f0565b820191906000526020600020905b8154815290600101906020018083116108d357829003601f168201915b5050505050908060050160009054906101000a900473ffffffffffffffffffffffffffffffffffffffff16905086565b6002818154811061093057600080fd5b906000526020600020016000915090508060000160009054906101000a900473ffffffffffffffffffffffffffffffffffffffff16908060000160149054906101000a900460ff16905082565b60003390506000803373ffffffffffffffffffffffffffffffffffffffff1673ffffffffffffffffffffffffffffffffffffffff16815260200190815260200160002060000160149054906101000a900460ff1615610a11576040517f08c379a0000000000000000000000000000000000000000000000000000000008152600401610a0890611fca565b60405180910390fd5b600160003373ffffffffffffffffffffffffffffffffffffffff1673ffffffffffffffffffffffffffffffffffffffff16815260200190815260200160002060000160149054906101000a900460ff1615610aa1576040517f08c379a0000000000000000000000000000000000000000000000000000000008152600401610a989061205c565b60405180910390fd5b60016000803373ffffffffffffffffffffffffffffffffffffffff1673ffffffffffffffffffffffffffffffffffffffff16815260200190815260200160002060000160146101000a81548160ff021916908315150217905550600260405180604001604052808373ffffffffffffffffffffffffffffffffffffffff168152602001600115158152509080600181540180825580915050600190039060005260206000200160009091909190915060008201518160000160006101000a81548173ffffffffffffffffffffffffffffffffffffffff021916908373ffffffffffffffffffffffffffffffffffffffff16021790555060208201518160000160146101000a81548160ff021916908315150217905550505050565b600160003373ffffffffffffffffffffffffffffffffffffffff1673ffffffffffffffffffffffffffffffffffffffff16815260200190815260200160002060000160149054906101000a900460ff16610c4b576040517f08c379a0000000000000000000000000000000000000000000000000000000008152600401610c42906120ee565b60405180910390fd5b600560405180610140016040528060048781548110610c6d57610c6c61210e565b5b90600052602060002090600602016000018054610c8990611f27565b80601f0160208091040260200160405190810160405280929190818152602001828054610cb590611f27565b8015610d025780601f10610cd757610100808354040283529160200191610d02565b820191906000526020600020905b815481529060010190602001808311610ce557829003601f168201915b5050505050815260200160048781548110610d2057610d1f61210e565b5b90600052602060002090600602016001018054610d3c90611f27565b80601f0160208091040260200160405190810160405280929190818152602001828054610d6890611f27565b8015610db55780601f10610d8a57610100808354040283529160200191610db5565b820191906000526020600020905b815481529060010190602001808311610d9857829003601f168201915b5050505050815260200160048781548110610dd357610dd261210e565b5b90600052602060002090600602016002018054610def90611f27565b80601f0160208091040260200160405190810160405280929190818152602001828054610e1b90611f27565b8015610e685780601f10610e3d57610100808354040283529160200191610e68565b820191906000526020600020905b815481529060010190602001808311610e4b57829003601f168201915b5050505050815260200160048781548110610e8657610e8561210e565b5b90600052602060002090600602016003018054610ea290611f27565b80601f0160208091040260200160405190810160405280929190818152602001828054610ece90611f27565b8015610f1b5780601f10610ef057610100808354040283529160200191610f1b565b820191906000526020600020905b815481529060010190602001808311610efe57829003601f168201915b5050505050815260200185858080601f016020809104026020016040519081016040528093929190818152602001838380828437600081840152601f19601f82011690508083019250505050505050815260200160048781548110610f8357610f8261210e565b5b90600052602060002090600602016004018054610f9f90611f27565b80601f0160208091040260200160405190810160405280929190818152602001828054610fcb90611f27565b80156110185780601f10610fed57610100808354040283529160200191611018565b820191906000526020600020905b815481529060010190602001808311610ffb57829003601f168201915b50505050508152602001600487815481106110365761103561210e565b5b906000526020600020906006020160050160009054906101000a900473ffffffffffffffffffffffffffffffffffffffff1673ffffffffffffffffffffffffffffffffffffffff1681526020013373ffffffffffffffffffffffffffffffffffffffff1681526020018381526020016000151581525090806001815401808255809150506001900390600052602060002090600a020160009091909190915060008201518160000190816110ea9190612318565b5060208201518160010190816111009190612318565b5060408201518160020190816111169190612318565b50606082015181600301908161112c9190612318565b5060808201518160040190816111429190612318565b5060a08201518160050190816111589190612318565b5060c08201518160060160006101000a81548173ffffffffffffffffffffffffffffffffffffffff021916908373ffffffffffffffffffffffffffffffffffffffff16021790555060e08201518160070160006101000a81548173ffffffffffffffffffffffffffffffffffffffff021916908373ffffffffffffffffffffffffffffffffffffffff16021790555061010082015181600801556101208201518160090160006101000a81548160ff021916908315150217905550505050505050565b6000339050600160003373ffffffffffffffffffffffffffffffffffffffff1673ffffffffffffffffffffffffffffffffffffffff16815260200190815260200160002060000160149054906101000a900460ff16156112b0576040517f08c379a00000000000000000000000000000000000000000000000000000000081526004016112a79061205c565b60405180910390fd5b6000803373ffffffffffffffffffffffffffffffffffffffff1673ffffffffffffffffffffffffffffffffffffffff16815260200190815260200160002060000160149054906101000a900460ff161561133f576040517f08c379a000000000000000000000000000000000000000000000000000000000815260040161133690611fca565b60405180910390fd5b60018060003373ffffffffffffffffffffffffffffffffffffffff1673ffffffffffffffffffffffffffffffffffffffff16815260200190815260200160002060000160146101000a81548160ff021916908315150217905550600360405180604001604052808373ffffffffffffffffffffffffffffffffffffffff168152602001600115158152509080600181540180825580915050600190039060005260206000200160009091909190915060008201518160000160006101000a81548173ffffffffffffffffffffffffffffffffffffffff021916908373ffffffffffffffffffffffffffffffffffffffff16021790555060208201518160000160146101000a81548160ff021916908315150217905550505050565b6000803373ffffffffffffffffffffffffffffffffffffffff1673ffffffffffffffffffffffffffffffffffffffff16815260200190815260200160002060000160149054906101000a900460ff166114e8576040517f08c379a00000000000000000000000000000000000000000000000000000000081526004016114df9061245c565b60405180910390fd5b6000600582815481106114fe576114fd61210e565b5b90600052602060002090600a0201905060008160070160009054906101000a900473ffffffffffffffffffffffffffffffffffffffff169050600015156005848154811061154f5761154e61210e565b5b90600052602060002090600a020160090160009054906101000a900460ff1615151461157a57600080fd5b6000808273ffffffffffffffffffffffffffffffffffffffff16346040516115a1906124ad565b60006040518083038185875af1925050503d80600081146115de576040519150601f19603f3d011682016040523d82523d6000602084013e6115e3565b606091505b509150915081611628576040517f08c379a000000000000000000000000000000000000000000000000000000000815260040161161f9061250e565b60405180910390fd5b60016005868154811061163e5761163d61210e565b5b90600052602060002090600a020160090160006101000a81548160ff0219169083151502179055505050505050565b6003818154811061167d57600080fd5b906000526020600020016000915090508060000160009054906101000a900473ffffffffffffffffffffffffffffffffffffffff16908060000160149054906101000a900460ff16905082565b6000803373ffffffffffffffffffffffffffffffffffffffff1673ffffffffffffffffffffffffffffffffffffffff16815260200190815260200160002060000160149054906101000a900460ff16611758576040517f08c379a000000000000000000000000000000000000000000000000000000000815260040161174f9061245c565b60405180910390fd5b60046040518060c001604052808c8c8080601f016020809104026020016040519081016040528093929190818152602001838380828437600081840152601f19601f8201169050808301925050505050505081526020018a8a8080601f016020809104026020016040519081016040528093929190818152602001838380828437600081840152601f19601f82011690508083019250505050505050815260200188888080601f016020809104026020016040519081016040528093929190818152602001838380828437600081840152601f19601f82011690508083019250505050505050815260200186868080601f016020809104026020016040519081016040528093929190818152602001838380828437600081840152601f19601f82011690508083019250505050505050815260200184848080601f016020809104026020016040519081016040528093929190818152602001838380828437600081840152601f19601f8201169050808301925050505050505081526020013373ffffffffffffffffffffffffffffffffffffffff168152509080600181540180825580915050600190039060005260206000209060060201600090919091909150600082015181600001908161192f9190612318565b5060208201518160010190816119459190612318565b50604082015181600201908161195b9190612318565b5060608201518160030190816119719190612318565b5060808201518160040190816119879190612318565b5060a08201518160050160006101000a81548173ffffffffffffffffffffffffffffffffffffffff021916908373ffffffffffffffffffffffffffffffffffffffff160217905550505050505050505050505050565b600080fd5b600080fd5b6000819050919050565b6119fa816119e7565b8114611a0557600080fd5b50565b600081359050611a17816119f1565b92915050565b600060208284031215611a3357611a326119dd565b5b6000611a4184828501611a08565b91505092915050565b600081519050919050565b600082825260208201905092915050565b60005b83811015611a84578082015181840152602081019050611a69565b60008484015250505050565b6000601f19601f8301169050919050565b6000611aac82611a4a565b611ab68185611a55565b9350611ac6818560208601611a66565b611acf81611a90565b840191505092915050565b600073ffffffffffffffffffffffffffffffffffffffff82169050919050565b6000611b0582611ada565b9050919050565b611b1581611afa565b82525050565b6000611b2682611ada565b9050919050565b611b3681611b1b565b82525050565b611b45816119e7565b82525050565b60008115159050919050565b611b6081611b4b565b82525050565b6000610140820190508181036000830152611b81818d611aa1565b90508181036020830152611b95818c611aa1565b90508181036040830152611ba9818b611aa1565b90508181036060830152611bbd818a611aa1565b90508181036080830152611bd18189611aa1565b905081810360a0830152611be58188611aa1565b9050611bf460c0830187611b0c565b611c0160e0830186611b2d565b611c0f610100830185611b3c565b611c1d610120830184611b57565b9b9a5050505050505050505050565b600060c0820190508181036000830152611c468189611aa1565b90508181036020830152611c5a8188611aa1565b90508181036040830152611c6e8187611aa1565b90508181036060830152611c828186611aa1565b90508181036080830152611c968185611aa1565b9050611ca560a0830184611b0c565b979650505050505050565b6000604082019050611cc56000830185611b0c565b611cd26020830184611b57565b9392505050565b600080fd5b600080fd5b600080fd5b60008083601f840112611cfe57611cfd611cd9565b5b8235905067ffffffffffffffff811115611d1b57611d1a611cde565b5b602083019150836001820283011115611d3757611d36611ce3565b5b9250929050565b60008060008060608587031215611d5857611d576119dd565b5b6000611d6687828801611a08565b945050602085013567ffffffffffffffff811115611d8757611d866119e2565b5b611d9387828801611ce8565b93509350506040611da687828801611a08565b91505092959194509250565b6000604082019050611dc76000830185611b2d565b611dd46020830184611b57565b9392505050565b60008060008060008060008060008060a08b8d031215611dfe57611dfd6119dd565b5b60008b013567ffffffffffffffff811115611e1c57611e1b6119e2565b5b611e288d828e01611ce8565b9a509a505060208b013567ffffffffffffffff811115611e4b57611e4a6119e2565b5b611e578d828e01611ce8565b985098505060408b013567ffffffffffffffff811115611e7a57611e796119e2565b5b611e868d828e01611ce8565b965096505060608b013567ffffffffffffffff811115611ea957611ea86119e2565b5b611eb58d828e01611ce8565b945094505060808b013567ffffffffffffffff811115611ed857611ed76119e2565b5b611ee48d828e01611ce8565b92509250509295989b9194979a5092959850565b7f4e487b7100000000000000000000000000000000000000000000000000000000600052602260045260246000fd5b60006002820490506001821680611f3f57607f821691505b602082108103611f5257611f51611ef8565b5b50919050565b7f5573657220697320616c7265616479207265676973746572656420617320612060008201527f637573746f6d6572000000000000000000000000000000000000000000000000602082015250565b6000611fb4602883611a55565b9150611fbf82611f58565b604082019050919050565b60006020820190508181036000830152611fe381611fa7565b9050919050565b7f5573657220697320616c7265616479207265676973746572656420617320612060008201527f6472697665720000000000000000000000000000000000000000000000000000602082015250565b6000612046602683611a55565b915061205182611fea565b604082019050919050565b6000602082019050818103600083015261207581612039565b9050919050565b7f55736572206973206e6f7420726567697374657265642061732061206472697660008201527f6572000000000000000000000000000000000000000000000000000000000000602082015250565b60006120d8602283611a55565b91506120e38261207c565b604082019050919050565b60006020820190508181036000830152612107816120cb565b9050919050565b7f4e487b7100000000000000000000000000000000000000000000000000000000600052603260045260246000fd5b7f4e487b7100000000000000000000000000000000000000000000000000000000600052604160045260246000fd5b60008190508160005260206000209050919050565b60006020601f8301049050919050565b600082821b905092915050565b6000600883026121ce7fffffffffffffffffffffffffffffffffffffffffffffffffffffffffffffffff82612191565b6121d88683612191565b95508019841693508086168417925050509392505050565b6000819050919050565b600061221561221061220b846119e7565b6121f0565b6119e7565b9050919050565b6000819050919050565b61222f836121fa565b61224361223b8261221c565b84845461219e565b825550505050565b600090565b61225861224b565b612263818484612226565b505050565b5b818110156122875761227c600082612250565b600181019050612269565b5050565b601f8211156122cc5761229d8161216c565b6122a684612181565b810160208510156122b5578190505b6122c96122c185612181565b830182612268565b50505b505050565b600082821c905092915050565b60006122ef600019846008026122d1565b1980831691505092915050565b600061230883836122de565b9150826002028217905092915050565b61232182611a4a565b67ffffffffffffffff81111561233a5761233961213d565b5b6123448254611f27565b61234f82828561228b565b600060209050601f8311600181146123825760008415612370578287015190505b61237a85826122fc565b8655506123e2565b601f1984166123908661216c565b60005b828110156123b857848901518255600182019150602085019450602081019050612393565b868310156123d557848901516123d1601f8916826122de565b8355505b6001600288020188555050505b505050505050565b7f55736572206973206e6f7420207265676973746572656420617320612063757360008201527f746f6d6572000000000000000000000000000000000000000000000000000000602082015250565b6000612446602583611a55565b9150612451826123ea565b604082019050919050565b6000602082019050818103600083015261247581612439565b9050919050565b600081905092915050565b50565b600061249760008361247c565b91506124a282612487565b600082019050919050565b60006124b88261248a565b9150819050919050565b7f4661696c656420746f2073656e64204574686572000000000000000000000000600082015250565b60006124f8601483611a55565b9150612503826124c2565b602082019050919050565b60006020820190508181036000830152612527816124eb565b905091905056fea2646970667358221220fe1a711778fca1c3939ce7f38297a4d9ee37183304a594628871806b2705834664736f6c63430008110033",
  "immutableReferences": {},
  "source": "// SPDX-License-Identifier: GPL-3.0\r\npragma solidity >=0.7.0 <0.9.0;\r\n\r\ncontract carpool{\r\n\r\n   \r\n    struct Customer{\r\n        address user;\r\n        bool  isRegistered;\r\n    }\r\n    struct Driver{\r\n        address payable user;\r\n        bool isRegistered;\r\n    }\r\n    // struct for request ride\r\n    struct Ride{\r\n        string from_address;\r\n        string to_address;\r\n         string name;\r\n         string time;\r\n         \r\n         string date;\r\n         address customer;\r\n        \r\n    }\r\n    struct Accept_Ride{\r\n        string from_address;\r\n        string to_address;\r\n         string name;\r\n         string time;\r\n         string driver_name;\r\n         string date;\r\n         address customer;\r\n         address payable driver;\r\n         uint price; \r\n         bool isPayed; \r\n    }\r\n    mapping(address=>Customer) customers;\r\n    mapping(address =>Driver) drivers;\r\n    Customer[] public customer_array;\r\n    Driver[] public  driver_array;\r\n    Ride[] public ride_array;\r\n    Accept_Ride[] public accept_ride_array;\r\n    function register_customer() public {\r\n       //bool not_registered = true;\r\n        address current_user = msg.sender;\r\n        require(!customers[msg.sender].isRegistered, \"User is already registered as a customer\");\r\n        require(!drivers[msg.sender].isRegistered, \"User is already registered as a driver\");\r\n        customers[msg.sender].isRegistered = true;\r\n      //  require(not_registered==true);\r\n        customer_array.push(Customer({\r\n            user:current_user,\r\n            isRegistered: true\r\n        }));\r\n        \r\n    }\r\n    function register_driver() public {\r\n       // bool not_registered = true;\r\n        address payable current_user = payable(msg.sender);\r\n       \r\n    \r\n        require(!drivers[msg.sender].isRegistered, \"User is already registered as a driver\");\r\n         require(!customers[msg.sender].isRegistered, \"User is already registered as a customer\");\r\n        drivers[msg.sender].isRegistered = true; \r\n        driver_array.push(Driver({\r\n            user:current_user,\r\n            isRegistered: true\r\n        }));\r\n       \r\n    }\r\n    function request_ride(string calldata _from_address,string calldata _to_address,string calldata _name,string calldata _time,string calldata _date) public{\r\n        /*bool existing_customer = false;\r\n        for(uint i=0;i<customer_array.length;i++)\r\n        {\r\n            if(customer_array[i].user==msg.sender)\r\n                existing_customer = true;\r\n        }\r\n        require(existing_customer==true);*/\r\n       require(customers[msg.sender].isRegistered, \"User is not  registered as a customer\");\r\n        ride_array.push(Ride({\r\n            from_address:_from_address,\r\n            to_address: _to_address,\r\n            name: _name,\r\n            time:_time,\r\n            customer: msg.sender,\r\n            date: _date\r\n        }));\r\n    }\r\n    function accept_ride(uint  ride_no,string calldata dri_name,uint _price) public  {\r\n        /* bool existing_driver = false;\r\n        for(uint i=0;i<driver_array.length;i++)\r\n        {\r\n            if(driver_array[i].user==msg.sender)\r\n                existing_driver = true;\r\n        }*/\r\n         require(drivers[msg.sender].isRegistered, \"User is not registered as a driver\");\r\n        //require(existing_driver==true);\r\n        accept_ride_array.push(Accept_Ride({\r\n            from_address:ride_array[ride_no].from_address,\r\n            to_address: ride_array[ride_no].to_address,\r\n            name: ride_array[ride_no].name,\r\n            time:ride_array[ride_no].time,\r\n            driver_name: dri_name,\r\n            customer: ride_array[ride_no].customer,\r\n            driver: payable(msg.sender),\r\n            price:_price,\r\n            date: ride_array[ride_no].date,\r\n            isPayed: false\r\n        }));\r\n\r\n    }\r\n     // Function to receive Ether. msg.data must be empty\r\n    /*receive() external payable {}\r\n    // Fallback function is called when msg.data is not empty\r\n    fallback() external payable {}*/\r\n    function pay_driver(uint ride_no) public payable{\r\n         require(customers[msg.sender].isRegistered, \"User is not  registered as a customer\");\r\n\r\n        Accept_Ride storage ride = accept_ride_array[ride_no];\r\n    address payable driver = ride.driver;\r\n    require(accept_ride_array[ride_no].isPayed==false);\r\n    //uint price = ride.price;\r\n    //driver.transfer(price);\r\n     (bool sent, bytes memory data) = driver.call{value: msg.value}(\"\");\r\n        require(sent, \"Failed to send Ether\");\r\n        accept_ride_array[ride_no].isPayed=true;\r\n    }\r\n}",
  "sourcePath": "C:\\Users\\lakka\\OneDrive - Manipal Academy of Higher Education\\programming learning\\Dapps\\UBER-CLONE\\contracts\\carpool.sol",
  "compiler": {
    "name": "solc",
    "version": "0.8.17+commit.8df45f5f.Emscripten.clang"
  },
  "schemaVersion": "3.4.11",
  "updatedAt": "2023-04-29T09:16:04.385Z",
  "networkType": "ethereum",
  "devdoc": {
    "kind": "dev",
    "methods": {},
    "version": 1
  },
  "userdoc": {
    "kind": "user",
    "methods": {},
    "version": 1
  }
}