{
  "contractName": "carpool",
  "abi": [
    {
      "inputs": [
        {
          "internalType": "uint256",
          "name": "",
          "type": "uint256"
        }
      ],
      "name": "accept_ride_array",
      "outputs": [
        {
          "internalType": "string",
          "name": "from_address",
          "type": "string"
        },
        {
          "internalType": "string",
          "name": "to_address",
          "type": "string"
        },
        {
          "internalType": "string",
          "name": "name",
          "type": "string"
        },
        {
          "internalType": "string",
          "name": "time",
          "type": "string"
        },
        {
          "internalType": "string",
          "name": "driver_name",
          "type": "string"
        },
        {
          "internalType": "string",
          "name": "date",
          "type": "string"
        },
        {
          "internalType": "address",
          "name": "customer",
          "type": "address"
        },
        {
          "internalType": "address payable",
          "name": "driver",
          "type": "address"
        },
        {
          "internalType": "uint256",
          "name": "price",
          "type": "uint256"
        },
        {
          "internalType": "bool",
          "name": "isPayed",
          "type": "bool"
        }
      ],
      "stateMutability": "view",
      "type": "function",
      "constant": true
    },
    {
      "inputs": [
        {
          "internalType": "uint256",
          "name": "",
          "type": "uint256"
        }
      ],
      "name": "customer_array",
      "outputs": [
        {
          "internalType": "address",
          "name": "user",
          "type": "address"
        },
        {
          "internalType": "bool",
          "name": "isRegistered",
          "type": "bool"
        }
      ],
      "stateMutability": "view",
      "type": "function",
      "constant": true
    },
    {
      "inputs": [
        {
          "internalType": "uint256",
          "name": "",
          "type": "uint256"
        }
      ],
      "name": "driver_array",
      "outputs": [
        {
          "internalType": "address payable",
          "name": "user",
          "type": "address"
        },
        {
          "internalType": "bool",
          "name": "isRegistered",
          "type": "bool"
        }
      ],
      "stateMutability": "view",
      "type": "function",
      "constant": true
    },
    {
      "inputs": [
        {
          "internalType": "uint256",
          "name": "",
          "type": "uint256"
        }
      ],
      "name": "ride_array",
      "outputs": [
        {
          "internalType": "string",
          "name": "from_address",
          "type": "string"
        },
        {
          "internalType": "string",
          "name": "to_address",
          "type": "string"
        },
        {
          "internalType": "string",
          "name": "name",
          "type": "string"
        },
        {
          "internalType": "string",
          "name": "time",
          "type": "string"
        },
        {
          "internalType": "string",
          "name": "date",
          "type": "string"
        },
        {
          "internalType": "address",
          "name": "customer",
          "type": "address"
        }
      ],
      "stateMutability": "view",
      "type": "function",
      "constant": true
    },
    {
      "inputs": [],
      "name": "register_customer",
      "outputs": [],
      "stateMutability": "nonpayable",
      "type": "function"
    },
    {
      "inputs": [],
      "name": "register_driver",
      "outputs": [],
      "stateMutability": "nonpayable",
      "type": "function"
    },
    {
      "inputs": [
        {
          "internalType": "string",
          "name": "_from_address",
          "type": "string"
        },
        {
          "internalType": "string",
          "name": "_to_address",
          "type": "string"
        },
        {
          "internalType": "string",
          "name": "_name",
          "type": "string"
        },
        {
          "internalType": "string",
          "name": "_time",
          "type": "string"
        },
        {
          "internalType": "string",
          "name": "_date",
          "type": "string"
        }
      ],
      "name": "request_ride",
      "outputs": [],
      "stateMutability": "nonpayable",
      "type": "function"
    },
    {
      "inputs": [],
      "name": "get_ride_array",
      "outputs": [
        {
          "components": [
            {
              "internalType": "string",
              "name": "from_address",
              "type": "string"
            },
            {
              "internalType": "string",
              "name": "to_address",
              "type": "string"
            },
            {
              "internalType": "string",
              "name": "name",
              "type": "string"
            },
            {
              "internalType": "string",
              "name": "time",
              "type": "string"
            },
            {
              "internalType": "string",
              "name": "date",
              "type": "string"
            },
            {
              "internalType": "address",
              "name": "customer",
              "type": "address"
            }
          ],
          "internalType": "struct carpool.Ride[]",
          "name": "",
          "type": "tuple[]"
        }
      ],
      "stateMutability": "view",
      "type": "function",
      "constant": true
    },
    {
      "inputs": [
        {
          "internalType": "uint256",
          "name": "ride_no",
          "type": "uint256"
        },
        {
          "internalType": "string",
          "name": "dri_name",
          "type": "string"
        },
        {
          "internalType": "uint256",
          "name": "_price",
          "type": "uint256"
        }
      ],
      "name": "accept_ride",
      "outputs": [],
      "stateMutability": "nonpayable",
      "type": "function"
    },
    {
      "inputs": [
        {
          "internalType": "uint256",
          "name": "ride_no",
          "type": "uint256"
        }
      ],
      "name": "pay_driver",
      "outputs": [],
      "stateMutability": "payable",
      "type": "function",
      "payable": true
    }
  ],
  "bytecode": "0x608060405234801561001057600080fd5b50612b0b806100206000396000f3fe6080604052600436106100915760003560e01c806329a822531161005957806329a822531461019c5780632ad8e7e2146101b357806398ed5ca4146101cf5780639e7cfa891461020d578063bf452c6e1461023657610091565b8063054b3c0d1461009657806306a95876146100dc5780630e142bde1461011e57806316212cde1461015c5780631ccfc22d14610173575b600080fd5b3480156100a257600080fd5b506100bd60048036038101906100b89190611de2565b610261565b6040516100d39a99989796959493929190611f2b565b60405180910390f35b3480156100e857600080fd5b5061010360048036038101906100fe9190611de2565b610642565b60405161011596959493929190611ff1565b60405180910390f35b34801561012a57600080fd5b5061014560048036038101906101409190611de2565b610956565b604051610153929190612075565b60405180910390f35b34801561016857600080fd5b506101716109b3565b005b34801561017f57600080fd5b5061019a60048036038101906101959190612103565b610bf2565b005b3480156101a857600080fd5b506101b1611251565b005b6101cd60048036038101906101c89190611de2565b611490565b005b3480156101db57600080fd5b506101f660048036038101906101f19190611de2565b6116a3565b604051610204929190612177565b60405180910390f35b34801561021957600080fd5b50610234600480360381019061022f91906121a0565b611700565b005b34801561024257600080fd5b5061024b611a13565b604051610258919061247d565b60405180910390f35b6005818154811061027157600080fd5b90600052602060002090600a0201600091509050806000018054610294906124ce565b80601f01602080910402602001604051908101604052809291908181526020018280546102c0906124ce565b801561030d5780601f106102e25761010080835404028352916020019161030d565b820191906000526020600020905b8154815290600101906020018083116102f057829003601f168201915b505050505090806001018054610322906124ce565b80601f016020809104026020016040519081016040528092919081815260200182805461034e906124ce565b801561039b5780601f106103705761010080835404028352916020019161039b565b820191906000526020600020905b81548152906001019060200180831161037e57829003601f168201915b5050505050908060020180546103b0906124ce565b80601f01602080910402602001604051908101604052809291908181526020018280546103dc906124ce565b80156104295780601f106103fe57610100808354040283529160200191610429565b820191906000526020600020905b81548152906001019060200180831161040c57829003601f168201915b50505050509080600301805461043e906124ce565b80601f016020809104026020016040519081016040528092919081815260200182805461046a906124ce565b80156104b75780601f1061048c576101008083540402835291602001916104b7565b820191906000526020600020905b81548152906001019060200180831161049a57829003601f168201915b5050505050908060040180546104cc906124ce565b80601f01602080910402602001604051908101604052809291908181526020018280546104f8906124ce565b80156105455780601f1061051a57610100808354040283529160200191610545565b820191906000526020600020905b81548152906001019060200180831161052857829003601f168201915b50505050509080600501805461055a906124ce565b80601f0160208091040260200160405190810160405280929190818152602001828054610586906124ce565b80156105d35780601f106105a8576101008083540402835291602001916105d3565b820191906000526020600020905b8154815290600101906020018083116105b657829003601f168201915b5050505050908060060160009054906101000a900473ffffffffffffffffffffffffffffffffffffffff16908060070160009054906101000a900473ffffffffffffffffffffffffffffffffffffffff16908060080154908060090160009054906101000a900460ff1690508a565b6004818154811061065257600080fd5b9060005260206000209060060201600091509050806000018054610675906124ce565b80601f01602080910402602001604051908101604052809291908181526020018280546106a1906124ce565b80156106ee5780601f106106c3576101008083540402835291602001916106ee565b820191906000526020600020905b8154815290600101906020018083116106d157829003601f168201915b505050505090806001018054610703906124ce565b80601f016020809104026020016040519081016040528092919081815260200182805461072f906124ce565b801561077c5780601f106107515761010080835404028352916020019161077c565b820191906000526020600020905b81548152906001019060200180831161075f57829003601f168201915b505050505090806002018054610791906124ce565b80601f01602080910402602001604051908101604052809291908181526020018280546107bd906124ce565b801561080a5780601f106107df5761010080835404028352916020019161080a565b820191906000526020600020905b8154815290600101906020018083116107ed57829003601f168201915b50505050509080600301805461081f906124ce565b80601f016020809104026020016040519081016040528092919081815260200182805461084b906124ce565b80156108985780601f1061086d57610100808354040283529160200191610898565b820191906000526020600020905b81548152906001019060200180831161087b57829003601f168201915b5050505050908060040180546108ad906124ce565b80601f01602080910402602001604051908101604052809291908181526020018280546108d9906124ce565b80156109265780601f106108fb57610100808354040283529160200191610926565b820191906000526020600020905b81548152906001019060200180831161090957829003601f168201915b5050505050908060050160009054906101000a900473ffffffffffffffffffffffffffffffffffffffff16905086565b6002818154811061096657600080fd5b906000526020600020016000915090508060000160009054906101000a900473ffffffffffffffffffffffffffffffffffffffff16908060000160149054906101000a900460ff16905082565b60003390506000803373ffffffffffffffffffffffffffffffffffffffff1673ffffffffffffffffffffffffffffffffffffffff16815260200190815260200160002060000160149054906101000a900460ff1615610a47576040517f08c379a0000000000000000000000000000000000000000000000000000000008152600401610a3e90612571565b60405180910390fd5b600160003373ffffffffffffffffffffffffffffffffffffffff1673ffffffffffffffffffffffffffffffffffffffff16815260200190815260200160002060000160149054906101000a900460ff1615610ad7576040517f08c379a0000000000000000000000000000000000000000000000000000000008152600401610ace90612603565b60405180910390fd5b60016000803373ffffffffffffffffffffffffffffffffffffffff1673ffffffffffffffffffffffffffffffffffffffff16815260200190815260200160002060000160146101000a81548160ff021916908315150217905550600260405180604001604052808373ffffffffffffffffffffffffffffffffffffffff168152602001600115158152509080600181540180825580915050600190039060005260206000200160009091909190915060008201518160000160006101000a81548173ffffffffffffffffffffffffffffffffffffffff021916908373ffffffffffffffffffffffffffffffffffffffff16021790555060208201518160000160146101000a81548160ff021916908315150217905550505050565b600160003373ffffffffffffffffffffffffffffffffffffffff1673ffffffffffffffffffffffffffffffffffffffff16815260200190815260200160002060000160149054906101000a900460ff16610c81576040517f08c379a0000000000000000000000000000000000000000000000000000000008152600401610c7890612695565b60405180910390fd5b600560405180610140016040528060048781548110610ca357610ca26126b5565b5b90600052602060002090600602016000018054610cbf906124ce565b80601f0160208091040260200160405190810160405280929190818152602001828054610ceb906124ce565b8015610d385780601f10610d0d57610100808354040283529160200191610d38565b820191906000526020600020905b815481529060010190602001808311610d1b57829003601f168201915b5050505050815260200160048781548110610d5657610d556126b5565b5b90600052602060002090600602016001018054610d72906124ce565b80601f0160208091040260200160405190810160405280929190818152602001828054610d9e906124ce565b8015610deb5780601f10610dc057610100808354040283529160200191610deb565b820191906000526020600020905b815481529060010190602001808311610dce57829003601f168201915b5050505050815260200160048781548110610e0957610e086126b5565b5b90600052602060002090600602016002018054610e25906124ce565b80601f0160208091040260200160405190810160405280929190818152602001828054610e51906124ce565b8015610e9e5780601f10610e7357610100808354040283529160200191610e9e565b820191906000526020600020905b815481529060010190602001808311610e8157829003601f168201915b5050505050815260200160048781548110610ebc57610ebb6126b5565b5b90600052602060002090600602016003018054610ed8906124ce565b80601f0160208091040260200160405190810160405280929190818152602001828054610f04906124ce565b8015610f515780601f10610f2657610100808354040283529160200191610f51565b820191906000526020600020905b815481529060010190602001808311610f3457829003601f168201915b5050505050815260200185858080601f016020809104026020016040519081016040528093929190818152602001838380828437600081840152601f19601f82011690508083019250505050505050815260200160048781548110610fb957610fb86126b5565b5b90600052602060002090600602016004018054610fd5906124ce565b80601f0160208091040260200160405190810160405280929190818152602001828054611001906124ce565b801561104e5780601f106110235761010080835404028352916020019161104e565b820191906000526020600020905b81548152906001019060200180831161103157829003601f168201915b505050505081526020016004878154811061106c5761106b6126b5565b5b906000526020600020906006020160050160009054906101000a900473ffffffffffffffffffffffffffffffffffffffff1673ffffffffffffffffffffffffffffffffffffffff1681526020013373ffffffffffffffffffffffffffffffffffffffff1681526020018381526020016000151581525090806001815401808255809150506001900390600052602060002090600a0201600090919091909150600082015181600001908161112091906128bf565b50602082015181600101908161113691906128bf565b50604082015181600201908161114c91906128bf565b50606082015181600301908161116291906128bf565b50608082015181600401908161117891906128bf565b5060a082015181600501908161118e91906128bf565b5060c08201518160060160006101000a81548173ffffffffffffffffffffffffffffffffffffffff021916908373ffffffffffffffffffffffffffffffffffffffff16021790555060e08201518160070160006101000a81548173ffffffffffffffffffffffffffffffffffffffff021916908373ffffffffffffffffffffffffffffffffffffffff16021790555061010082015181600801556101208201518160090160006101000a81548160ff021916908315150217905550505050505050565b6000339050600160003373ffffffffffffffffffffffffffffffffffffffff1673ffffffffffffffffffffffffffffffffffffffff16815260200190815260200160002060000160149054906101000a900460ff16156112e6576040517f08c379a00000000000000000000000000000000000000000000000000000000081526004016112dd90612603565b60405180910390fd5b6000803373ffffffffffffffffffffffffffffffffffffffff1673ffffffffffffffffffffffffffffffffffffffff16815260200190815260200160002060000160149054906101000a900460ff1615611375576040517f08c379a000000000000000000000000000000000000000000000000000000000815260040161136c90612571565b60405180910390fd5b60018060003373ffffffffffffffffffffffffffffffffffffffff1673ffffffffffffffffffffffffffffffffffffffff16815260200190815260200160002060000160146101000a81548160ff021916908315150217905550600360405180604001604052808373ffffffffffffffffffffffffffffffffffffffff168152602001600115158152509080600181540180825580915050600190039060005260206000200160009091909190915060008201518160000160006101000a81548173ffffffffffffffffffffffffffffffffffffffff021916908373ffffffffffffffffffffffffffffffffffffffff16021790555060208201518160000160146101000a81548160ff021916908315150217905550505050565b6000803373ffffffffffffffffffffffffffffffffffffffff1673ffffffffffffffffffffffffffffffffffffffff16815260200190815260200160002060000160149054906101000a900460ff1661151e576040517f08c379a000000000000000000000000000000000000000000000000000000000815260040161151590612a03565b60405180910390fd5b600060058281548110611534576115336126b5565b5b90600052602060002090600a0201905060008160070160009054906101000a900473ffffffffffffffffffffffffffffffffffffffff1690506000151560058481548110611585576115846126b5565b5b90600052602060002090600a020160090160009054906101000a900460ff161515146115b057600080fd5b6000808273ffffffffffffffffffffffffffffffffffffffff16346040516115d790612a54565b60006040518083038185875af1925050503d8060008114611614576040519150601f19603f3d011682016040523d82523d6000602084013e611619565b606091505b50915091508161165e576040517f08c379a000000000000000000000000000000000000000000000000000000000815260040161165590612ab5565b60405180910390fd5b600160058681548110611674576116736126b5565b5b90600052602060002090600a020160090160006101000a81548160ff0219169083151502179055505050505050565b600381815481106116b357600080fd5b906000526020600020016000915090508060000160009054906101000a900473ffffffffffffffffffffffffffffffffffffffff16908060000160149054906101000a900460ff16905082565b6000803373ffffffffffffffffffffffffffffffffffffffff1673ffffffffffffffffffffffffffffffffffffffff16815260200190815260200160002060000160149054906101000a900460ff1661178e576040517f08c379a000000000000000000000000000000000000000000000000000000000815260040161178590612a03565b60405180910390fd5b60046040518060c001604052808c8c8080601f016020809104026020016040519081016040528093929190818152602001838380828437600081840152601f19601f8201169050808301925050505050505081526020018a8a8080601f016020809104026020016040519081016040528093929190818152602001838380828437600081840152601f19601f82011690508083019250505050505050815260200188888080601f016020809104026020016040519081016040528093929190818152602001838380828437600081840152601f19601f82011690508083019250505050505050815260200186868080601f016020809104026020016040519081016040528093929190818152602001838380828437600081840152601f19601f82011690508083019250505050505050815260200184848080601f016020809104026020016040519081016040528093929190818152602001838380828437600081840152601f19601f8201169050808301925050505050505081526020013373ffffffffffffffffffffffffffffffffffffffff168152509080600181540180825580915050600190039060005260206000209060060201600090919091909150600082015181600001908161196591906128bf565b50602082015181600101908161197b91906128bf565b50604082015181600201908161199191906128bf565b5060608201518160030190816119a791906128bf565b5060808201518160040190816119bd91906128bf565b5060a08201518160050160006101000a81548173ffffffffffffffffffffffffffffffffffffffff021916908373ffffffffffffffffffffffffffffffffffffffff160217905550505050505050505050505050565b60606004805480602002602001604051908101604052809291908181526020016000905b82821015611d9957838290600052602060002090600602016040518060c0016040529081600082018054611a6a906124ce565b80601f0160208091040260200160405190810160405280929190818152602001828054611a96906124ce565b8015611ae35780601f10611ab857610100808354040283529160200191611ae3565b820191906000526020600020905b815481529060010190602001808311611ac657829003601f168201915b50505050508152602001600182018054611afc906124ce565b80601f0160208091040260200160405190810160405280929190818152602001828054611b28906124ce565b8015611b755780601f10611b4a57610100808354040283529160200191611b75565b820191906000526020600020905b815481529060010190602001808311611b5857829003601f168201915b50505050508152602001600282018054611b8e906124ce565b80601f0160208091040260200160405190810160405280929190818152602001828054611bba906124ce565b8015611c075780601f10611bdc57610100808354040283529160200191611c07565b820191906000526020600020905b815481529060010190602001808311611bea57829003601f168201915b50505050508152602001600382018054611c20906124ce565b80601f0160208091040260200160405190810160405280929190818152602001828054611c4c906124ce565b8015611c995780601f10611c6e57610100808354040283529160200191611c99565b820191906000526020600020905b815481529060010190602001808311611c7c57829003601f168201915b50505050508152602001600482018054611cb2906124ce565b80601f0160208091040260200160405190810160405280929190818152602001828054611cde906124ce565b8015611d2b5780601f10611d0057610100808354040283529160200191611d2b565b820191906000526020600020905b815481529060010190602001808311611d0e57829003601f168201915b505050505081526020016005820160009054906101000a900473ffffffffffffffffffffffffffffffffffffffff1673ffffffffffffffffffffffffffffffffffffffff1673ffffffffffffffffffffffffffffffffffffffff168152505081526020019060010190611a37565b50505050905090565b600080fd5b600080fd5b6000819050919050565b611dbf81611dac565b8114611dca57600080fd5b50565b600081359050611ddc81611db6565b92915050565b600060208284031215611df857611df7611da2565b5b6000611e0684828501611dcd565b91505092915050565b600081519050919050565b600082825260208201905092915050565b60005b83811015611e49578082015181840152602081019050611e2e565b60008484015250505050565b6000601f19601f8301169050919050565b6000611e7182611e0f565b611e7b8185611e1a565b9350611e8b818560208601611e2b565b611e9481611e55565b840191505092915050565b600073ffffffffffffffffffffffffffffffffffffffff82169050919050565b6000611eca82611e9f565b9050919050565b611eda81611ebf565b82525050565b6000611eeb82611e9f565b9050919050565b611efb81611ee0565b82525050565b611f0a81611dac565b82525050565b60008115159050919050565b611f2581611f10565b82525050565b6000610140820190508181036000830152611f46818d611e66565b90508181036020830152611f5a818c611e66565b90508181036040830152611f6e818b611e66565b90508181036060830152611f82818a611e66565b90508181036080830152611f968189611e66565b905081810360a0830152611faa8188611e66565b9050611fb960c0830187611ed1565b611fc660e0830186611ef2565b611fd4610100830185611f01565b611fe2610120830184611f1c565b9b9a5050505050505050505050565b600060c082019050818103600083015261200b8189611e66565b9050818103602083015261201f8188611e66565b905081810360408301526120338187611e66565b905081810360608301526120478186611e66565b9050818103608083015261205b8185611e66565b905061206a60a0830184611ed1565b979650505050505050565b600060408201905061208a6000830185611ed1565b6120976020830184611f1c565b9392505050565b600080fd5b600080fd5b600080fd5b60008083601f8401126120c3576120c261209e565b5b8235905067ffffffffffffffff8111156120e0576120df6120a3565b5b6020830191508360018202830111156120fc576120fb6120a8565b5b9250929050565b6000806000806060858703121561211d5761211c611da2565b5b600061212b87828801611dcd565b945050602085013567ffffffffffffffff81111561214c5761214b611da7565b5b612158878288016120ad565b9350935050604061216b87828801611dcd565b91505092959194509250565b600060408201905061218c6000830185611ef2565b6121996020830184611f1c565b9392505050565b60008060008060008060008060008060a08b8d0312156121c3576121c2611da2565b5b60008b013567ffffffffffffffff8111156121e1576121e0611da7565b5b6121ed8d828e016120ad565b9a509a505060208b013567ffffffffffffffff8111156122105761220f611da7565b5b61221c8d828e016120ad565b985098505060408b013567ffffffffffffffff81111561223f5761223e611da7565b5b61224b8d828e016120ad565b965096505060608b013567ffffffffffffffff81111561226e5761226d611da7565b5b61227a8d828e016120ad565b945094505060808b013567ffffffffffffffff81111561229d5761229c611da7565b5b6122a98d828e016120ad565b92509250509295989b9194979a5092959850565b600081519050919050565b600082825260208201905092915050565b6000819050602082019050919050565b600082825260208201905092915050565b600061230582611e0f565b61230f81856122e9565b935061231f818560208601611e2b565b61232881611e55565b840191505092915050565b61233c81611ebf565b82525050565b600060c083016000830151848203600086015261235f82826122fa565b9150506020830151848203602086015261237982826122fa565b9150506040830151848203604086015261239382826122fa565b915050606083015184820360608601526123ad82826122fa565b915050608083015184820360808601526123c782826122fa565b91505060a08301516123dc60a0860182612333565b508091505092915050565b60006123f38383612342565b905092915050565b6000602082019050919050565b6000612413826122bd565b61241d81856122c8565b93508360208202850161242f856122d9565b8060005b8581101561246b578484038952815161244c85826123e7565b9450612457836123fb565b925060208a01995050600181019050612433565b50829750879550505050505092915050565b600060208201905081810360008301526124978184612408565b905092915050565b7f4e487b7100000000000000000000000000000000000000000000000000000000600052602260045260246000fd5b600060028204905060018216806124e657607f821691505b6020821081036124f9576124f861249f565b5b50919050565b7f5573657220697320616c7265616479207265676973746572656420617320612060008201527f637573746f6d6572000000000000000000000000000000000000000000000000602082015250565b600061255b602883611e1a565b9150612566826124ff565b604082019050919050565b6000602082019050818103600083015261258a8161254e565b9050919050565b7f5573657220697320616c7265616479207265676973746572656420617320612060008201527f6472697665720000000000000000000000000000000000000000000000000000602082015250565b60006125ed602683611e1a565b91506125f882612591565b604082019050919050565b6000602082019050818103600083015261261c816125e0565b9050919050565b7f55736572206973206e6f7420726567697374657265642061732061206472697660008201527f6572000000000000000000000000000000000000000000000000000000000000602082015250565b600061267f602283611e1a565b915061268a82612623565b604082019050919050565b600060208201905081810360008301526126ae81612672565b9050919050565b7f4e487b7100000000000000000000000000000000000000000000000000000000600052603260045260246000fd5b7f4e487b7100000000000000000000000000000000000000000000000000000000600052604160045260246000fd5b60008190508160005260206000209050919050565b60006020601f8301049050919050565b600082821b905092915050565b6000600883026127757fffffffffffffffffffffffffffffffffffffffffffffffffffffffffffffffff82612738565b61277f8683612738565b95508019841693508086168417925050509392505050565b6000819050919050565b60006127bc6127b76127b284611dac565b612797565b611dac565b9050919050565b6000819050919050565b6127d6836127a1565b6127ea6127e2826127c3565b848454612745565b825550505050565b600090565b6127ff6127f2565b61280a8184846127cd565b505050565b5b8181101561282e576128236000826127f7565b600181019050612810565b5050565b601f8211156128735761284481612713565b61284d84612728565b8101602085101561285c578190505b61287061286885612728565b83018261280f565b50505b505050565b600082821c905092915050565b600061289660001984600802612878565b1980831691505092915050565b60006128af8383612885565b9150826002028217905092915050565b6128c882611e0f565b67ffffffffffffffff8111156128e1576128e06126e4565b5b6128eb82546124ce565b6128f6828285612832565b600060209050601f8311600181146129295760008415612917578287015190505b61292185826128a3565b865550612989565b601f19841661293786612713565b60005b8281101561295f5784890151825560018201915060208501945060208101905061293a565b8683101561297c5784890151612978601f891682612885565b8355505b6001600288020188555050505b505050505050565b7f55736572206973206e6f7420207265676973746572656420617320612063757360008201527f746f6d6572000000000000000000000000000000000000000000000000000000602082015250565b60006129ed602583611e1a565b91506129f882612991565b604082019050919050565b60006020820190508181036000830152612a1c816129e0565b9050919050565b600081905092915050565b50565b6000612a3e600083612a23565b9150612a4982612a2e565b600082019050919050565b6000612a5f82612a31565b9150819050919050565b7f4661696c656420746f2073656e64204574686572000000000000000000000000600082015250565b6000612a9f601483611e1a565b9150612aaa82612a69565b602082019050919050565b60006020820190508181036000830152612ace81612a92565b905091905056fea2646970667358221220ddaec2277ed92c5398bbd1b8008c5231dc7103901eb246c1b654d172ca4d90f364736f6c63430008110033",
  "immutableReferences": {},
  "source": "// SPDX-License-Identifier: GPL-3.0\r\npragma solidity >=0.7.0 <0.9.0;\r\n\r\ncontract carpool{\r\n\r\n   \r\n    struct Customer{\r\n        address user;\r\n        bool  isRegistered;\r\n    }\r\n    struct Driver{\r\n        address payable user;\r\n        bool isRegistered;\r\n    }\r\n    // struct for request ride\r\n    struct Ride{\r\n        string from_address;\r\n        string to_address;\r\n         string name;\r\n         string time;\r\n         \r\n         string date;\r\n         address customer;\r\n        \r\n    }\r\n    struct Accept_Ride{\r\n        string from_address;\r\n        string to_address;\r\n         string name;\r\n         string time;\r\n         string driver_name;\r\n         string date;\r\n         address customer;\r\n         address payable driver;\r\n         uint price; \r\n         bool isPayed; \r\n    }\r\n    mapping(address=>Customer) customers;\r\n    mapping(address =>Driver) drivers;\r\n    Customer[] public customer_array;\r\n    Driver[] public  driver_array;\r\n    Ride[] public ride_array;\r\n    Accept_Ride[] public accept_ride_array;\r\n    function register_customer() public {\r\n       //bool not_registered = true;\r\n        address current_user = msg.sender;\r\n        require(!customers[msg.sender].isRegistered, \"User is already registered as a customer\");\r\n        require(!drivers[msg.sender].isRegistered, \"User is already registered as a driver\");\r\n        customers[msg.sender].isRegistered = true;\r\n      //  require(not_registered==true);\r\n        customer_array.push(Customer({\r\n            user:current_user,\r\n            isRegistered: true\r\n        }));\r\n        \r\n    }\r\n    function register_driver() public {\r\n       // bool not_registered = true;\r\n        address payable current_user = payable(msg.sender);\r\n       \r\n    \r\n        require(!drivers[msg.sender].isRegistered, \"User is already registered as a driver\");\r\n         require(!customers[msg.sender].isRegistered, \"User is already registered as a customer\");\r\n        drivers[msg.sender].isRegistered = true; \r\n        driver_array.push(Driver({\r\n            user:current_user,\r\n            isRegistered: true\r\n        }));\r\n       \r\n    }\r\n    function request_ride(string calldata _from_address,string calldata _to_address,string calldata _name,string calldata _time,string calldata _date) public{\r\n        /*bool existing_customer = false;\r\n        for(uint i=0;i<customer_array.length;i++)\r\n        {\r\n            if(customer_array[i].user==msg.sender)\r\n                existing_customer = true;\r\n        }\r\n        require(existing_customer==true);*/\r\n       require(customers[msg.sender].isRegistered, \"User is not  registered as a customer\");\r\n        ride_array.push(Ride({\r\n            from_address:_from_address,\r\n            to_address: _to_address,\r\n            name: _name,\r\n            time:_time,\r\n            customer: msg.sender,\r\n            date: _date\r\n        }));\r\n    }\r\n    function get_ride_array() public view returns (Ride[] memory){\r\n        return ride_array;\r\n    }\r\n    function accept_ride(uint  ride_no,string calldata dri_name,uint _price) public  {\r\n        /* bool existing_driver = false;\r\n        for(uint i=0;i<driver_array.length;i++)\r\n        {\r\n            if(driver_array[i].user==msg.sender)\r\n                existing_driver = true;\r\n        }*/\r\n         require(drivers[msg.sender].isRegistered, \"User is not registered as a driver\");\r\n        //require(existing_driver==true);\r\n        accept_ride_array.push(Accept_Ride({\r\n            from_address:ride_array[ride_no].from_address,\r\n            to_address: ride_array[ride_no].to_address,\r\n            name: ride_array[ride_no].name,\r\n            time:ride_array[ride_no].time,\r\n            driver_name: dri_name,\r\n            customer: ride_array[ride_no].customer,\r\n            driver: payable(msg.sender),\r\n            price:_price,\r\n            date: ride_array[ride_no].date,\r\n            isPayed: false\r\n        }));\r\n\r\n    }\r\n     // Function to receive Ether. msg.data must be empty\r\n    /*receive() external payable {}\r\n    // Fallback function is called when msg.data is not empty\r\n    fallback() external payable {}*/\r\n    function pay_driver(uint ride_no) public payable{\r\n         require(customers[msg.sender].isRegistered, \"User is not  registered as a customer\");\r\n\r\n        Accept_Ride storage ride = accept_ride_array[ride_no];\r\n    address payable driver = ride.driver;\r\n    require(accept_ride_array[ride_no].isPayed==false);\r\n    //uint price = ride.price;\r\n    //driver.transfer(price);\r\n     (bool sent, bytes memory data) = driver.call{value: msg.value}(\"\");\r\n        require(sent, \"Failed to send Ether\");\r\n        accept_ride_array[ride_no].isPayed=true;\r\n    }\r\n}",
  "sourcePath": "C:\\Users\\lakka\\OneDrive - Manipal Academy of Higher Education\\programming learning\\Dapps\\UBER-CLONE\\contracts\\carpool.sol",
  "compiler": {
    "name": "solc",
    "version": "0.8.17+commit.8df45f5f.Emscripten.clang"
  },
  "schemaVersion": "3.4.11",
  "updatedAt": "2023-04-29T13:39:19.479Z",
  "networkType": "ethereum",
  "devdoc": {
    "kind": "dev",
    "methods": {},
    "version": 1
  },
  "userdoc": {
    "kind": "user",
    "methods": {},
    "version": 1
  }
}